:100000000C9421010C9449010C9449010C94490170
:100010000C9449010C9449010C9449010C94490138
:100020000C9449010C9449010C9449010C94490128
:100030000C9449010C9449010C9449010C94490118
:100040000C9415080C9449010C94680A0C94B60A97
:100050000C9449010C9449010C9449010C944901F8
:100060000C9449010C944901416661646556616CC8
:1000700075653A303A303A3132380041666164652C
:100080004469723A303A3132383A3000416661643C
:10009000696E673A3132383A303A300041747269E9
:1000A0006767657265643A3235353A303A323535CC
:1000B000004164656C7461417665726167653A30D0
:1000C0003A3235353A32353500416C6173745369D3
:1000D000676E69666963616E7441766572616765B2
:1000E0003A3235353A3235353A30004163757272FD
:1000F000656E74417665726167653A303A303A32BE
:100100003535004163757272656E744144433A300F
:100110003A3235353A300059303A313032343A36A5
:10012000340046303A303A3000423235353A3235D2
:10013000353A323535004D31303A31303A36303A91
:1001400032300053313238303A38303000520A52AF
:100150000A5200226661646556616C756522002250
:1001600066616465446972220022666164696E6733
:1001700022002274726967676572656422002264D6
:10018000656C7461417665726167652200226C61FD
:1001900073745369676E69666963616E74417665ED
:1001A0007261676522002263757272656E744176B2
:1001B000657261676522002263757272656E7441B3
:1001C00044432200226D794D656469616E2E676536
:1001D00074436F756E74282922002254696D65225C
:1001E0000000000000240027002A00000000002575
:1001F0000028002B00000000002300260029000436
:1002000004040404040404020202020202030303BD
:1002100003030301020408102040800102040810B7
:100220002001020408102000000007000201000065
:100230000304060000000000000000007E02240C01
:10024000770211241FBECFEFD8E0DEBFCDBF11E093
:10025000A0E0B1E0EEE6F3E202C005900D92A83214
:10026000B107D9F712E0A8E2B1E001C01D92AA31AE
:10027000B107E1F712E0C0E4D2E004C02297FE012A
:100280000E94A611CC33D107C9F70E947A0C0C94B6
:10029000AA110C940000CF93DF93BC01823091052A
:1002A00010F462E070E0A0911802B0911902ED0123
:1002B000E0E0F0E040E050E021C0888199818617BD
:1002C000970769F48A819B81309719F09383828321
:1002D00004C09093190280931802FE0134C068177D
:1002E000790738F44115510519F08417950708F47A
:1002F000AC01FE018A819B819C01E9012097E9F60E
:1003000041155105A9F1CA01861B970B049708F402
:10031000BA01E0E0F0E02AC08D919C91119784171A
:100320009507F9F46417750781F412968D919C91E5
:100330001397309719F09383828304C09093190226
:1003400080931802FD0132964CC0CA01861B970BA0
:10035000FD01E80FF91F6193719302978D939C93B0
:1003600040C0FD01828193819C01D9011097A1F6C3
:100370008091160290911702892B41F4809110010F
:1003800090911101909317028093160240911201EF
:10039000509113014115510541F44DB75EB780915D
:1003A0000E0190910F01481B590B209116023091BC
:1003B0001702CA01821B930B8617970780F0AB01C7
:1003C0004E5F5F4F8417950750F0420F531F5093B5
:1003D000170240931602F9016193719302C0E0E0A5
:1003E000F0E0CF01DF91CF910895CF93DF93009795
:1003F00009F450C0EC0122971B821A82A0911802C6
:10040000B0911902109709F140E050E0AC17BD0718
:1004100008F1BB83AA83FE0121913191E20FF31F02
:10042000AE17BF0779F48D919C911197280F391F52
:100430002E5F3F4F3983288312968D919C9113979D
:100440009B838A834115510571F4D0931902C0939F
:10045000180220C012968D919C911397AD010097C0
:1004600011F0DC01D3CFFA01D383C2832191319102
:10047000E20FF31FCE17DF0769F488819981280FF7
:10048000391F2E5F3F4FFA01318320838A819B8180
:1004900093838283DF91CF91089581309105E9F4B0
:1004A0006F5F7F4F19F50E945D0860932E01709376
:1004B0002F01809330019093310182E391E063E159
:1004C0000E94E9070E945D0860935D0170935E01E0
:1004D00080935F01909360010895892B39F46F5FD9
:1004E0007F4F21F482E391E00E94D907089580E0D4
:1004F00090E06FEF7FEF0E944D02089581E090E061
:100500006FEF7FEF0E944D020895EF92FF920F93DD
:100510001F937B018C0183E10E94140A892B31F423
:1005200081E080931401809315010CC281E10E9447
:10053000140A892B09F41EC180911401882309F43F
:1005400072C01092140181E08093150184EF91E054
:100550006AED71E00E94B30C84EF91E06CE20E94BE
:10056000D60C84EF91E064EC71E00E94B30C84EF50
:1005700091E06CE20E94D60C84EF91E067EB71E0B1
:100580000E94B30C84EF91E06CE20E94D60C84EFE1
:1005900091E066EA71E00E94B30C84EF91E06CE2B6
:1005A0000E94D60C84EF91E06DE871E00E94B30CDC
:1005B00084EF91E06CE20E94D60C84EF91E06EE74C
:1005C00071E00E94B30C84EF91E06CE20E94D60CC3
:1005D00084EF91E062E771E00E94B30C84EF91E058
:1005E0006CE20E94D60C84EF91E069E671E00E9413
:1005F000B30C84EF91E06CE20E94D60C84EF91E0A2
:100600006FE571E00E94B30C84EF91E06CE20E9410
:10061000D60C84EF91E063E571E00E94B30C84EFA7
:1006200091E00E94DE0C84EF91E0B801A7012AE07E
:1006300030E00E94920D84EF91E06CE20E94D60CB3
:1006400082E391E00E94EC06682F84EF91E04AE09B
:1006500050E00E94B20D84EF91E06CE20E94D60C53
:10066000609128017091290184EF91E04AE050E007
:100670000E94A10D84EF91E06CE20E94D60C4091A3
:100680002A0150912B0160912C0170912D0184EF72
:1006900091E022E030E00E941A0F84EF91E06CE2DA
:1006A0000E94D60C40915201509153016091540127
:1006B0007091550184EF91E022E030E00E941A0F22
:1006C00084EF91E06CE20E94D60C60912A01709157
:1006D0002B0180912C0190912D012091520130919C
:1006E000530140915401509155010E941D0FAB01DF
:1006F000BC0184EF91E022E030E00E941A0F84EF09
:1007000091E06CE20E94D60C84EF91E060915A0176
:100710004AE050E00E94B20D84EF91E06CE20E944A
:10072000D60C84EF91E060915B014AE050E00E94BA
:10073000B20D84EF91E06CE20E94D60C84EF91E060
:1007400060915C014AE050E00E94B20D84EF91E0BC
:100750006CE20E94D60C609161017091620184EF9D
:1007600091E04AE050E00E94040E84EF91E00E9484
:10077000DE0CE8C080911501882309F459C081E09E
:10078000809314011092150184EF91E06DE471E003
:100790000E94FE0C84EF91E063E471E00E94FE0C85
:1007A00084EF91E066E371E00E94FE0C84EF91E03B
:1007B00069E271E00E94FE0C84EF91E062E271E078
:1007C0000E94FE0C84EF91E067E171E00E94FE0C54
:1007D00084EF91E063E071E00E94FE0C84EF91E011
:1007E0006BEE70E00E94FE0C84EF91E069EC70E02B
:1007F0000E94FE0C84EF91E061EB70E00E94FE0C21
:1008000084EF91E06CE970E00E94FE0C84EF91E0CF
:100810006CE870E00E94FE0C84EF91E06BE770E002
:100820000E94FE0C84EF91E068E670E00E94FE0CEE
:1008300084EF91E066E50E94D60C609128017091EA
:10084000290184EF91E04AE050E00E94A10D84EF7D
:1008500091E06AE30E94D60C40912A0150912B014D
:1008600060912C0170912D0184EF91E022E030E045
:100870000E941A0F84EF91E06AE30E94D60C409127
:10088000520150915301609154017091550184EFD0
:1008900091E022E030E00E941A0F84EF91E06AE3D9
:1008A0000E94D60C60912A0170912B0180912C013D
:1008B00090912D01209152013091530140915401AA
:1008C000509155010E941D0FAB01BC0184EF91E0D6
:1008D00022E030E00E941A0F84EF91E06AE30E9468
:1008E000D60C84EF91E060915A014AE050E00E94FA
:1008F000B20D84EF91E06AE30E94D60C84EF91E0A0
:1009000060915B014AE050E00E94B20D84EF91E0FB
:100910006AE30E94D60C84EF91E060915C014AE0AA
:1009200050E00E94B20D84EF91E06AE30E94D60C81
:10093000609161017091620184EF91E04AE050E0C2
:100940000E94170E1F910F91FF90EF900895EF9264
:10095000FF921F93CF93DF937C01EB01142F0E9432
:100960005D0860935D0170935E0180935F019093D9
:100970006001112349F4CE0162E070E00E945B1136
:10098000CC27DD27C61BD70BCE0DDF1DD7FF05C03B
:1009900010925B01C0E0D0E008C0CF3FD10529F044
:1009A00024F010925B01CFEFD0E083E0BE010E9403
:1009B0002109CE01DF91CF911F91FF90EF90089513
:1009C000AF92BF92CF92DF92EF92FF920F931F935D
:1009D000A0902A01B0902B01C0902C01D0902D0145
:1009E000E0905201F0905301009154011091550193
:1009F000C801B70120E030E040EA50E40E941D0F3A
:100A00009B01AC01C601B5010E94820F87FD10C099
:100A1000C801B70120E030E040EA50E40E941E0F18
:100A20009B01AC01C601B5010E94D1101816ACF4AF
:100A30000E945D086093560170935701809358019E
:100A40009093590181E080935A0180935B018093D8
:100A50005C018DE061E00E94C00980915A01882309
:100A6000F1F00E945D0820915601309157014091AC
:100A7000580150915901621B730B840B950B615106
:100A800077428040904058F010925A0181E0809364
:100A90005B0110925C018DE060E00E94C0091F9133
:100AA0000F91FF90EF90DF90CF90BF90AF9008959F
:100AB0001F930E945D0860932E0170932F01809315
:100AC0003001909331018EE00E94FF089C019093C9
:100AD00029018093280140E050E0CA01B9010E9439
:100AE0001F10AB01BC0182E391E00E94BB06809124
:100AF0004E0190914F01A0915001B091510180930E
:100B0000520190935301A0935401B09355018091E9
:100B10004A0190914B01A0914C01B0914D018093FD
:100B20004E0190934F01A0935001B09351018091D9
:100B3000460190914701A0914801B09149018093ED
:100B40004A0190934B01A0934C01B0934D018091C9
:100B5000420190914301A0914401B09145018093DD
:100B6000460190934701A0934801B09349018091B9
:100B70003E0190913F01A0914001B09141018093CD
:100B8000420190934301A0934401B09345018091A9
:100B90003A0190913B01A0913C01B0913D018093BD
:100BA0003E0190933F01A0934001B0934101809199
:100BB0002A0190912B01A0912C01B0912D018093DD
:100BC0003A0190933B01A0933C01B0933D0182E335
:100BD00091E069E00E94650760932A0170932B0100
:100BE00080932C0190932D0182E391E00E94EC060A
:100BF000182F82E391E00E94E906181708F459CFF4
:100C00001F9108950E945D0820912E0130912F01BF
:100C10004091300150913101621B730B840B950B95
:100C2000623171058105910570F00E9458050E949E
:100C3000E00460912E0170912F018091300190911C
:100C400031010E94850280915B01882359F10E9445
:100C50005D0820915D0130915E0140915F015091EE
:100C60006001621B730B840B950B6033710581056A
:100C70009105C0F0809161019091620164E070E0A3
:100C800040915C010E94A7049093620180936101EE
:100C900060915D0170915E0180915F0190916001B2
:100CA0000E948502089584EF91E040E052EC61E0FB
:100CB00070E00E94F10A84EF91E00E94220C8823E8
:100CC000D1F368EE73E080E090E00E946B0882E16F
:100CD00061E00E94810982E160E00E94C00983E135
:100CE00062E00E94810981E162E00E9481098DE059
:100CF00061E00E9481098DE060E00E94C00984E00B
:100D000061E00E94810984E060E00E94C009609176
:100D100061017091620183E00E94210980E090E00E
:100D2000A0E0B0E080933A0190933B01A0933C0196
:100D3000B0933D0180933E0190933F01A093400109
:100D4000B09341018093420190934301A0934401E9
:100D5000B09345018093460190934701A0934801C9
:100D6000B093490180934A0190934B01A0934C01A9
:100D7000B0934D010895DC0113962C911397822FA7
:100D800090E0880F991F880F991F1496ED91FC91A0
:100D90001597E80FF91F40835183628373832F5F98
:100DA00013962C93139711968C911197281718F07E
:100DB00013961C92139712969C91129711968C91F0
:100DC0001197981720F49F5F12969C9312971C928C
:100DD0000895FC0181810895FC01828108957F922C
:100DE0008F929F92AF92BF92CF92DF92EF92FF923B
:100DF0000F931F93CF93DF938C01BB2446C0F80160
:100E0000A481B5818681978121977C01EC0EFD1E1E
:100E10002196F701A0808C0F9D1FFC01C080EA2D58
:100E2000F0E0EE0FFF1FEE0FFF1FEA0FFB1F8C2DF0
:100E300090E0880F991F880F991FA80FB91F608134
:100E40007181828193812D913D914D915C910E94A0
:100E5000D11018165CF4D701CC92D8011696ED91FA
:100E6000FC911797EC0FFD1FA0827724D394CD2D12
:100E7000D0E0F801828190E088199909C817D90754
:100E80000CF4BDCF772081F4B3948B2C9924D80136
:100E900012968C9190E00197881699062CF477248D
:100EA0007394DD24D394E3CF81E0F8018083DF9154
:100EB000CF911F910F91FF90EF90DF90CF90BF9057
:100EC000AF909F908F907F900895AF92BF92CF92F6
:100ED000DF92EF92FF920F931F93CF93DF93EC017A
:100EE0008A81882309F450C0662309F44DC0262F57
:100EF000861708F4282FA22EBB2490E08A199B099C
:100F000062E070E00E945B11162FC62EC20E88812F
:100F1000882319F4CE010E94EF06D12E0F2EF0E0A7
:100F2000EF2EF0E0FF2EF0E00F2FF0E01F2FF02D5E
:100F300019C0EE81FF81ED0DF11D808190E0880FD9
:100F4000991F880F991FEC81FD81E80FF91FC801D7
:100F5000B70120813181428153810E941E0F7B01A4
:100F60008C01D394DC1428F3B501882777FD809594
:100F7000982F0E9421109B01AC01C801B7010E946B
:100F8000860FE62F692F04C0E0E070E080EC6FE789
:100F90002E2F372F482F562FB901CA01DF91CF913D
:100FA0001F910F91FF90EF90DF90CF90BF90AF9087
:100FB00008950F931F938C01FC01848195810E94F9
:100FC000F501F801868197810E94F5011F910F912B
:100FD0000895CF93DF93EC01662311F461E003C021
:100FE000643108F063E16983862F90E0880F991FD0
:100FF000880F991F0E944B018C839D83898190E00B
:101000000E944B018E839F831A821B82188290E07C
:1010100006C0EE81FF81E90FF11D90839F5F8981FA
:101020009817B8F3DF91CF9108951F920F920FB6E2
:101030000F9211242F933F938F939F93AF93BF935E
:101040008091670190916801A0916901B0916A0156
:1010500030916B010196A11DB11D232F2D5F2D37FE
:1010600020F02D570196A11DB11D20936B01809397
:10107000670190936801A0936901B0936A01809120
:10108000630190916401A0916501B09166010196A0
:10109000A11DB11D8093630190936401A09365012C
:1010A000B0936601BF91AF919F918F913F912F9126
:1010B0000F900FBE0F901F9018958FB7F894209146
:1010C0006701309168014091690150916A018FBFB9
:1010D000B901CA0108959B01AC017FB7F8948091D2
:1010E000630190916401A0916501B091660166B5BC
:1010F000A89B05C06F3F19F00196A11DB11D7FBFD0
:10110000BA2FA92F982F8827860F911DA11DB11DD9
:1011100062E0880F991FAA1FBB1F6A95D1F7BC0117
:101120002DC0FFB7F8948091630190916401A09164
:101130006501B0916601E6B5A89B05C0EF3F19F0C7
:101140000196A11DB11DFFBFBA2FA92F982F882787
:101150008E0F911DA11DB11DE2E0880F991FAA1FDE
:10116000BB1FEA95D1F7861B970B885E9340C8F2A8
:10117000215030404040504068517C4F211531058E
:101180004105510571F60895789484B5826084BD57
:1011900084B5816084BD85B5826085BD85B581607B
:1011A00085BDEEE6F0E0808181608083E1E8F0E0DB
:1011B0001082808182608083808181608083E0E80A
:1011C000F0E0808181608083E1EBF0E080818460E9
:1011D0008083E0EBF0E0808181608083EAE7F0E0EB
:1011E000808184608083808182608083808181604F
:1011F00080838081806880831092C1000895982F39
:101200008E3008F09E509770809116018295880F5D
:10121000880F807C892B80937C0080917A00806489
:1012200080937A0080917A0086FDFCCF209178002F
:1012300040917900942F80E030E0282B392BC901B0
:1012400008951F93CF93DF93182FEB0161E00E9465
:101250008109209709F44AC0CF3FD10509F449C05C
:10126000E12FF0E0E95DFD4F84918330C1F08430DF
:1012700028F4813051F08230B1F50CC0863019F17C
:10128000873049F1843079F514C084B5806884BD15
:10129000C7BD33C084B5806284BDC8BD2EC08091F7
:1012A0008000806880938000D0938900C09388007C
:1012B00024C080918000806280938000D0938B0056
:1012C000C0938A001AC08091B00080688093B000FB
:1012D000C093B30012C08091B00080628093B000D0
:1012E000C093B4000AC0C038D1051CF4812F60E05F
:1012F00002C0812F61E00E94C009DF91CF911F9150
:101300000895CF93DF93482F50E0CA018D5E9D4F23
:10131000FC01349141505E4FFA018491882369F1B8
:1013200090E0880F991FFC01EF51FE4FA591B491F9
:10133000FC01E551FE4FC591D491662351F42FB7BE
:10134000F8948C91932F909589238C93888189238D
:101350000BC0623061F42FB7F8948C91932F909565
:1013600089238C938881832B88832FBF06C09FB7E6
:10137000F8948C91832B8C939FBFDF91CF9108952C
:10138000482F50E0CA01895D9D4FFC012491CA019C
:101390008D5E9D4FFC01949141505E4FFA01349156
:1013A000332309F440C0222351F1233071F024305B
:1013B00028F42130A1F0223011F514C02630B1F00C
:1013C0002730C1F02430D9F404C0809180008F7799
:1013D00003C0809180008F7D8093800010C084B511
:1013E0008F7702C084B58F7D84BD09C08091B00025
:1013F0008F7703C08091B0008F7D8093B000E32F82
:10140000F0E0EE0FFF1FE551FE4FA591B4912FB70D
:10141000F894662321F48C919095892302C08C91D5
:10142000892B8C932FBF0895682F70E0CB01895DC5
:101430009D4FFC012491CB018D5E9D4FFC01449199
:1014400061507E4FFB019491992319F420E030E024
:101450003CC0222351F1233071F0243028F4213094
:10146000A1F0223011F514C02630B1F02730C1F0C0
:101470002430D9F404C0809180008F7703C080911C
:1014800080008F7D8093800010C084B58F7702C06C
:1014900084B58F7D84BD09C08091B0008F7703C073
:1014A0008091B0008F7D8093B000892F90E0880FED
:1014B000991F8B509E4FFC01A591B4918C9120E017
:1014C00030E0842311F021E030E0C901089508954F
:1014D0001F920F920FB60F9211242F933F934F93A9
:1014E0008F939F93EF93FF938091C00082FD1DC067
:1014F0004091C6002091AC013091AD012F5F3F4F6C
:101500002F7330708091AE019091AF012817390789
:1015100071F0E091AC01F091AD01E459FE4F4083D0
:101520003093AD012093AC0102C08091C600FF91C1
:10153000EF919F918F914F913F912F910F900FBEFF
:101540000F901F901895E0910002F0910102E05C6D
:10155000FF4F8191919120813181821B930B8F7379
:101560009070892B11F00E94670A08951F920F92C4
:101570000FB60F9211242F933F938F939F93EF9366
:10158000FF932091F0013091F1018091F20190914F
:10159000F3012817390731F48091C1008F7D8093C2
:1015A000C10014C0E091F201F091F301E055FE4F4B
:1015B00020818091F2019091F30101968F739070D8
:1015C0009093F3018093F2012093C600FF91EF9175
:1015D0009F918F913F912F910F900FBE0F901F9071
:1015E0001895AF92BF92DF92EF92FF920F931F93E5
:1015F000CF93DF93EC017A018B01DD24403081EE43
:10160000580780E0680780E0780711F0DD24D39464
:1016100091E0A92EB12CEC89FD89DD2069F0C5018E
:1016200008A002C0880F991F0A94E2F7808360E047
:1016300079E08DE390E005C0108260E874E88EE107
:1016400090E0A80197010E946E1121503040404067
:101650005040569547953795279580E120303807BB
:1016600020F0DD2011F0DD24D6CFE889F989308320
:10167000EA89FB89208319A2EE89FF89408121E054
:1016800030E0C9010C8C02C0880F991F0A94E2F760
:10169000482B4083EE89FF894081C9010D8C02C02F
:1016A000880F991F0A94E2F7482B4083EE89FF893F
:1016B0004081C9010E8C02C0880F991F0A94E2F77D
:1016C000482B4083EE89FF8980810F8C02C0220F56
:1016D000331F0A94E2F7209528232083DF91CF91CE
:1016E0001F910F91FF90EF90DF90BF90AF90089502
:1016F000DC011C96ED91FC911D97E05CFF4F219160
:10170000319180819181281B390B2F733070C90171
:101710000895DC011C96ED91FC911D97E05CFF4F54
:1017200020813181E054F040DF01AE5BBF4F8D91ED
:101730009C9111972817390719F42FEF3FEF07C035
:101740008D919C91E80FF91F8081282F30E0C9010D
:101750000895DC011C96ED91FC911D97E05CFF4F14
:1017600020813181E054F040DF01AE5BBF4F8D91AD
:101770009C9111972817390719F42FEF3FEF10C0EC
:101780008D919C911197E80FF91F20818D919C916B
:10179000119701968F73907011969C938E9330E001
:1017A000C9010895DC0191968C919197882339F0B5
:1017B0005496ED91FC915597808186FFF9CF9196D3
:1017C0001C920895CF93DF93EC01EE85FF85E05CDA
:1017D000FF4F20813181E054F0402F5F3F4F2F7346
:1017E0003070DF01AE5BBF4F8D919C911197281730
:1017F0003907D1F3E05CFF4F80819181E054F040E4
:10180000E80FF91F6083EE85FF85E05CFF4F3183B1
:101810002083EE89FF89208181E090E00F8C02C057
:10182000880F991F0A94E2F7282B208381E089A36F
:10183000EC89FD8980818064808381E090E0DF9184
:10184000CF91089581E008951092F7011092F6016A
:1018500088EE93E0A0E0B0E08093F8019093F90166
:10186000A093FA01B093FB018BE191E09093F50115
:101870008093F4018CE691E0909301028093000242
:1018800080EB91E0909303028093020285EC90E05C
:10189000909305028093040284EC90E090930702F9
:1018A0008093060280EC90E09093090280930802F6
:1018B00081EC90E090930B0280930A0282EC90E01E
:1018C00090930D0280930C0286EC90E090930F02AF
:1018D00080930E0284E08093100283E080931102D3
:1018E00087E08093120285E08093130281E0809369
:1018F00014020895CF93DF930E94C4080E945306F8
:10190000C3EADAE00E9402062097E1F30E94A30AEC
:10191000F9CFCF92DF92EF92FF920F931F93CF9365
:10192000DF937C016B018A01C0E0D0E00FC0D601DB
:101930006D916D01D701ED91FC910190F081E02D49
:10194000C7010995C80FD91F015010400115110595
:1019500071F7CE01DF91CF911F910F91FF90EF9022
:10196000DF90CF900895EF92FF920F931F93CF9344
:10197000DF937C018B01C0E0D0E0F8010F5F1F4FC7
:101980006491662359F0D701ED91FC910190F081AB
:10199000E02DC7010995C80FD91FEFCFCE01DF9108
:1019A000CF911F910F91FF90EF900895DC01ED9181
:1019B000FC910190F081E02D09950895EF92FF923E
:1019C0000F931F938C01DC01ED91FC910190F0814C
:1019D000E02D6DE009957C01D801ED91FC9101901D
:1019E000F081E02DC8016AE009959C012E0D3F1D94
:1019F000C9011F910F91FF90EF900895EF92FF9210
:101A00000F931F937C010E94B30C8C01C7010E94AD
:101A1000DE0C9C01200F311FC9011F910F91FF9017
:101A2000EF900895CF93DF93EC016115710519F4E0
:101A300020E030E00FC0DB010D900020E9F71197A6
:101A4000A61BB70BE881F9810280F381E02DAD017F
:101A500009959C01C901DF91CF9108954F925F9242
:101A60007F928F929F92AF92BF92CF92DF92EF922E
:101A7000FF920F931F93DF93CF93CDB7DEB7A1975C
:101A80000FB6F894DEBF0FBECDBF2C01742ECB0174
:101A9000223008F42AE019A231E2C32ED12CCC0E58
:101AA000DD1E822E9924AA24BB24672D752FA50143
:101AB00094010E946E1179018A01C801B701A50144
:101AC00094010E943C11472D461B0894C108D1087F
:101AD0004A3014F4405D01C0495CF6014083E114D2
:101AE000F1040105110521F07E2C5F2DC801DDCF29
:101AF000C201B6010E94120DA1960FB6F894DEBF86
:101B00000FBECDBFCF91DF911F910F91FF90EF904E
:101B1000DF90CF90BF90AF909F908F907F905F901D
:101B20004F900895DC012115310541F4ED91FC91B0
:101B30000190F081E02D642F099508950E942E0DEB
:101B40000895EF92FF920F931F939A017B0100E09B
:101B500010E0B801A7010E94920D1F910F91FF9014
:101B6000EF900895EF92FF920F931F939A01E62E44
:101B7000FF2400E010E0B801A7010E94920D1F9120
:101B80000F91FF90EF900895CF92DF92EF92FF9226
:101B90000F931F93CF93DF93EC016A017B01211513
:101BA000310541F4E881F9810190F081E02D642F45
:101BB00009951FC02A303105D1F477FF17C0E8819D
:101BC000F9810190F081E02D6DE209958C014427A7
:101BD0005527BA014C195D096E097F09CE012AE02B
:101BE0000E942E0D9801280F391F04C02AE00E9480
:101BF0002E0D9C01C901DF91CF911F910F91FF9094
:101C0000EF90DF90CF900895EF92FF920F931F9384
:101C10007B019A010027F7FC0095102FB801A7015E
:101C20000E94C40D1F910F91FF90EF900895CF92E5
:101C3000DF92EF92FF920F931F936C017B019A0149
:101C40000027F7FC0095102FB801A7010E94C40DD2
:101C50008C01C6010E94DE0C080F191FC8011F91DC
:101C60000F91FF90EF90DF90CF9008957F928F9229
:101C70009F92AF92BF92CF92DF92EF92FF920F931B
:101C80001F93CF93DF934C017A018B01722ECB010E
:101C9000BA01A80197010E943811882321F0C401DC
:101CA00060E071E021C0C0E0D0E057016801E89435
:101CB000D7F8C601B5012FEF3FEF4FE75FE70E946E
:101CC0003811882351F4C601B5012FEF3FEF4FE7DC
:101CD0005FE70E94820F181614F0C1E0D0E0219750
:101CE00039F0C40164E071E00E94120DEC0193C070
:101CF000C801B7012FEF3FEF4FE75FE40E94D1101B
:101D0000181654F0C801B7012FEF3FEF4FE75FEC13
:101D10000E94820F882324F4C40168E071E0E4CFBC
:101D2000C801B70120E030E040E050E00E94820F9F
:101D300087FD03C0C0E0D0E00EC0D401ED91FC915E
:101D40000190F081E02DC4016DE20995EC0117FBD3
:101D5000109517F9109520E030E040E05FE3DD24B6
:101D60000BC0CA01B90120E030E040E251E40E941A
:101D7000860F9B01AC01D394D71498F3C801B70127
:101D80000E941E0F5B016C010E94F30F7B018C010E
:101D9000C401B801A7012AE030E00E94920DC80FEB
:101DA000D91F772039F0C4016CE071E00E94120D58
:101DB000C80FD91FC801B7010E941F109B01AC01B9
:101DC000C601B5010E941D0F24C020E030E040E2B2
:101DD00051E40E94D5107B018C010E94EE0F5B0143
:101DE0006C01CC24B7FCC094DC2CC401B601A50165
:101DF0002AE030E00E94C40DC80FD91FC601B5010A
:101E00000E9421109B01AC01C801B7010E941D0F67
:101E10007A947720D1F6CE01DF91CF911F910F9167
:101E2000FF90EF90DF90CF90BF90AF909F908F90FA
:101E30007F9008950E94360E08955058BB27AA2718
:101E40000ED075C166D130F06BD120F031F49F3FD8
:101E500011F41EF45BC10EF4E095E7FB51C1E92FCC
:101E600077D180F3BA17620773078407950718F0D4
:101E700071F49EF58FC10EF4E0950B2EBA2FA02DB4
:101E80000B01B90190010C01CA01A0011124FF2727
:101E9000591B99F0593F50F4503E68F11A16F04022
:101EA000A22F232F342F4427585FF3CF4695379521
:101EB0002795A795F0405395C9F77EF41F16BA0BE6
:101EC000620B730B840BBAF09150A1F0FF0FBB1F94
:101ED000661F771F881FC2F70EC0BA0F621F731FDD
:101EE000841F48F4879577956795B795F7959E3F3A
:101EF00008F0B3CF9395880F08F09927EE0F9795C8
:101F000087950895D9D008F481E008950CD00FC1C9
:101F100007D140F0FED030F021F45F3F19F0F0C05F
:101F2000511139C1F3C014D198F39923C9F3552342
:101F3000B1F3951B550BBB27AA27621773078407BC
:101F400038F09F5F5F4F220F331F441FAA1FA9F372
:101F500033D00E2E3AF0E0E830D091505040E69564
:101F6000001CCAF729D0FE2F27D0660F771F881FC5
:101F7000BB1F261737074807AB07B0E809F0BB0BB4
:101F8000802DBF01FF2793585F4F2AF09E3F5105D8
:101F900068F0B6C000C15F3FECF3983EDCF3869575
:101FA00077956795B795F7959F5FC9F7880F911D4E
:101FB0009695879597F90895E1E0660F771F881F3A
:101FC000BB1F621773078407BA0720F0621B730BED
:101FD000840BBA0BEE1F88F7E095089504D068943F
:101FE000B111D9C00895BCD088F09F5790F0B92F97
:101FF0009927B751A0F0D1F0660F771F881F991F5E
:102000001AF0BA95C9F712C0B13081F0C3D0B1E06F
:102010000895C0C0672F782F8827B85F39F0B93F7F
:10202000CCF3869577956795B395D9F73EF490955F
:102030008095709561957F4F8F4F9F4F0895E894DD
:1020400009C097FB3EF490958095709561957F4F00
:102050008F4F9F4F9923A9F0F92F96E9BB279395AE
:10206000F695879577956795B795F111F8CFFAF4BE
:10207000BB0F11F460FF1BC06F5F7F4F8F4F9F4FEF
:1020800016C0882311F096E911C0772321F09EE84D
:10209000872F762F05C0662371F096E8862F70E0B3
:1020A00060E02AF09A95660F771F881FDAF7880F8D
:1020B0009695879597F90895990F0008550FAA0BE3
:1020C000E0E8FEEF16161706E807F907C0F012164B
:1020D0001306E407F50798F0621B730B840B950B4E
:1020E00039F40A2661F0232B242B252B21F40895A3
:1020F0000A2609F4A140A6958FEF811D811D089540
:1021000097F99F6780E870E060E008959FEF80ECAA
:10211000089500240A94161617061806090608954D
:1021200000240A9412161306140605060895092EB3
:102130000394000C11F4882352F0BB0F40F4BF2B22
:1021400011F460FF04C06F5F7F4F8F4F9F4F089562
:1021500057FD9058440F551F59F05F3F71F0479558
:10216000880F97FB991F61F09F3F79F0879508953D
:10217000121613061406551FF2CF4695F1DF08C05C
:10218000161617061806991FF1CF86957105610579
:1021900008940895E894BB2766277727CB0197F921
:1021A00008958ADF08F48FEF08950BD0C0CFB1DF18
:1021B00028F0B6DF18F0952309F0A2CFA7CF11249D
:1021C000EACFC6DFA0F3959FD1F3950F50E0551FDE
:1021D000629FF001729FBB27F00DB11D639FAA277C
:1021E000F00DB11DAA1F649F6627B00DA11D661FCB
:1021F000829F2227B00DA11D621F739FB00DA11DEC
:10220000621F839FA00D611D221F749F3327A00DA5
:10221000611D231F849F600D211D822F762F6A2F41
:1022200011249F5750408AF0E1F088234AF0EE0FC6
:10223000FF1FBB1F661F771F881F91505040A9F7D3
:102240009E3F510570F05CCFA6CF5F3FECF3983E08
:10225000DCF3869577956795B795F795E7959F5F3A
:10226000C1F7FE2B880F911D9695879597F90895D4
:1022700023DF880B990B0895629FD001739FF001B3
:10228000829FE00DF11D649FE00DF11D929FF00D06
:10229000839FF00D749FF00D659FF00D9927729F3D
:1022A000B00DE11DF91F639FB00DE11DF91FBD01C8
:1022B000CF011124089597FB092E07260AD077FD38
:1022C00004D02ED006D000201AF4709561957F4F6F
:1022D0000895F6F7909581959F4F0895A1E21A2EE3
:1022E000AA1BBB1BFD010DC0AA1FBB1FEE1FFF1FBA
:1022F000A217B307E407F50720F0A21BB30BE40B0A
:10230000F50B661F771F881F991F1A9469F7609550
:102310007095809590959B01AC01BD01CF0108950A
:10232000AA1BBB1B51E107C0AA1FBB1FA617B707FB
:1023300010F0A61BB70B881F991F5A95A9F7809517
:102340009095BC01CD010895EE0FFF1F0590F4910B
:10235000E02D099412E0C0E4D2E004C0FE010E9426
:0E236000A6112296C234D107C9F7F894FFCF18
:10236E006E616E00696E66006F7666002E0020004C
:10237E001A02000001010100000000E20B890C7836
:08238E000BA90B890BD20B0017
:00000001FF
