:100000000C9420010C9448010C9448010C94480174
:100010000C9448010C9448010C9448010C9448013C
:100020000C9448010C9448010C9448010C9448012C
:100030000C9448010C9448010C9448010C9448011C
:100040000C9411080C9448010C94640A0C94B20AA4
:100050000C9448010C9448010C9448010C944801FC
:100060000C9448010C944801416661646556616CCA
:1000700075653A303A303A3132380041666164652C
:100080004469723A303A3132383A3000416661643C
:10009000696E673A3132383A303A300041747269E9
:1000A0006767657265643A3235353A303A323535CC
:1000B000004164656C7461417665726167653A32CE
:1000C00035353A303A3000416C6173745369676E6C
:1000D00069666963616E74417665726167653A321B
:1000E00035353A3235353A30004163757272656E96
:1000F00074417665726167653A303A303A32353527
:10010000004163757272656E744144433A303A320D
:1001100035353A300059303A313032343A363400DD
:1001200046303A303A3000423235353A3235353A97
:10013000323535004D31303A31303A36303A32309E
:100140000053313238303A38303000520A520A52B5
:1001500000226661646556616C75652200226661E5
:100160006465446972220022666164696E672200D8
:100170002274726967676572656422002264656C27
:100180007461417665726167652200226C617374E7
:100190005369676E69666963616E74417665726101
:1001A000676522002263757272656E7441766572AE
:1001B00061676522002263757272656E7441444303
:1001C0002200226D794D656469616E2E6765744306
:1001D0006F756E74282922002254696D6522000013
:1001E000000000240027002A00000000002500284D
:1001F000002B000000000023002600290004040456
:1002000004040404040202020202020303030303BF
:10021000030102040810204080010204081020019C
:10022000020408102000000007000201000003047F
:10023000060000000000000000007D02200C760295
:1002400011241FBECFEFD8E0DEBFCDBF11E0A0E08C
:10025000B1E0E6E6F3E202C005900D92AA32B107E2
:10026000D9F712E0AAE2B1E001C01D92AA31B107AC
:10027000E1F712E0CEE3D2E004C02297FE010E9433
:10028000A211CA33D107C9F70E94760C0C94A611AB
:100290000C940000CF93DF93BC018230910510F4E1
:1002A00062E070E0A0911802B0911902ED01E0E067
:1002B000F0E040E050E021C08881998186179707DF
:1002C00069F48A819B81309719F09383828304C0FB
:1002D0009093190280931802FE0134C068177907C1
:1002E00038F44115510519F08417950708F4AC014D
:1002F000FE018A819B819C01E9012097E9F6411565
:100300005105A9F1CA01861B970B049708F4BA019D
:10031000E0E0F0E02AC08D919C9111978417950739
:10032000F9F46417750781F412968D919C911397D7
:10033000309719F09383828304C0909319028093BD
:100340001802FD0132964CC0CA01861B970BFD01B5
:10035000E80FF91F6193719302978D939C9340C0AE
:10036000FD01828193819C01D9011097A1F68091B2
:10037000160290911702892B41F4809110019091FF
:10038000110190931702809316024091120150912F
:1003900013014115510541F44DB75EB780910E012F
:1003A00090910F01481B590B2091160230911702B2
:1003B000CA01821B930B8617970780F0AB014E5F33
:1003C0005F4F8417950750F0420F531F5093170249
:1003D00040931602F9016193719302C0E0E0F0E0EE
:1003E000CF01DF91CF910895CF93DF93009709F468
:1003F00050C0EC0122971B821A82A0911802B09182
:100400001902109709F140E050E0AC17BD0708F160
:10041000BB83AA83FE0121913191E20FF31FAE1736
:10042000BF0779F48D919C911197280F391F2E5F8A
:100430003F4F3983288312968D919C9113979B830C
:100440008A834115510571F4D0931902C0931802A3
:1004500020C012968D919C911397AD01009711F0D9
:10046000DC01D3CFFA01D383C28321913191E20F12
:10047000F31FCE17DF0769F488819981280F391F90
:100480002E5F3F4FFA01318320838A819B819383C2
:100490008283DF91CF91089581309105E9F46F5FF8
:1004A0007F4F19F50E945908609330017093310114
:1004B000809332019093330184E391E063E10E94E1
:1004C000E5070E94590860935F0170936001809373
:1004D0006101909362010895892B39F46F5F7F4F1A
:1004E00021F484E391E00E94D507089580E090E034
:1004F0006FEF7FEF0E944C02089581E090E06FEF74
:100500007FEF0E944C020895EF92FF920F931F938A
:100510007B018C0183E10E94100A892B31F481E078
:1005200080931401809315010CC281E10E94100A8E
:10053000892B09F41EC180911401882309F472C02B
:100540001092140181E08093150184EF91E068ED31
:1005500071E00E94AF0C84EF91E06CE20E94D20C3B
:1005600084EF91E062EC71E00E94AF0C84EF91E0C7
:100570006CE20E94D20C84EF91E065EB71E00E9486
:10058000AF0C84EF91E06CE20E94D20C84EF91E01A
:1005900064EA71E00E94AF0C84EF91E06CE20E948B
:1005A000D20C84EF91E06BE871E00E94AF0C84EF15
:1005B00091E06CE20E94D20C84EF91E06CE771E074
:1005C0000E94AF0C84EF91E06CE20E94D20C84EFA9
:1005D00091E060E771E00E94AF0C84EF91E06CE283
:1005E0000E94D20C84EF91E067E671E00E94AF0CAC
:1005F00084EF91E06CE20E94D20C84EF91E06DE513
:1006000071E00E94AF0C84EF91E06CE20E94D20C8A
:1006100084EF91E061E571E00E94AF0C84EF91E01E
:100620000E94DA0C84EF91E0B801A7012AE030E0E3
:100630000E948E0D84EF91E06CE20E94D20C84E364
:1006400091E00E94E806682F84EF91E04AE050E0D4
:100650000E94AE0D84EF91E06CE20E94D20C60919A
:100660002A0170912B0184EF91E04AE050E00E9452
:100670009D0D84EF91E06CE20E94D20C40912C0120
:1006800050912D0160912E0170912F0184EF91E026
:1006900022E030E00E94160F84EF91E06CE20E94AD
:1006A000D20C4091540150915501609156017091C6
:1006B000570184EF91E022E030E00E94160F84EFB2
:1006C00091E06CE20E94D20C60912C0170912D019E
:1006D00080912E0190912F0120915401309155016C
:1006E00040915601509157010E94190FAB01BC0176
:1006F00084EF91E022E030E00E94160F84EF91E059
:100700006CE20E94D20C84EF91E060915C014AE0BF
:1007100050E00E94AE0D84EF91E06CE20E94D20C9A
:1007200084EF91E060915D014AE050E00E94AE0DDF
:1007300084EF91E06CE20E94D20C84EF91E0609132
:100740005E014AE050E00E94AE0D84EF91E06CE261
:100750000E94D20C609116017091170184EF91E014
:100760004AE050E00E94000E84EF91E00E94DA0C13
:10077000E8C080911501882309F459C081E0809375
:1007800014011092150184EF91E06BE471E00E9476
:10079000FA0C84EF91E061E471E00E94FA0C84EFBE
:1007A00091E064E371E00E94FA0C84EF91E067E26B
:1007B00071E00E94FA0C84EF91E060E271E00E9427
:1007C000FA0C84EF91E065E171E00E94FA0C84EF8D
:1007D00091E061E071E00E94FA0C84EF91E069EE33
:1007E00070E00E94FA0C84EF91E067EC70E00E94E8
:1007F000FA0C84EF91E061EB70E00E94FA0C84EF58
:1008000091E06CE970E00E94FA0C84EF91E06CE8F2
:1008100070E00E94FA0C84EF91E06BE770E00E94B8
:10082000FA0C84EF91E068E670E00E94FA0C84EF25
:1008300091E066E50E94D20C60912A0170912B0133
:1008400084EF91E04AE050E00E949D0D84EF91E03A
:100850006AE30E94D20C40912C0150912D016091CD
:100860002E0170912F0184EF91E022E030E00E9490
:10087000160F84EF91E06AE30E94D20C409154017C
:1008800050915501609156017091570184EF91E0AC
:1008900022E030E00E94160F84EF91E06AE30E94AC
:1008A000D20C60912C0170912D0180912E019091BC
:1008B0002F012091540130915501409156015091E2
:1008C00057010E94190FAB01BC0184EF91E022E0B7
:1008D00030E00E94160F84EF91E06AE30E94D20C90
:1008E00084EF91E060915C014AE050E00E94AE0D1F
:1008F00084EF91E06AE30E94D20C84EF91E0609172
:100900005D014AE050E00E94AE0D84EF91E06AE3A1
:100910000E94D20C84EF91E060915E014AE050E0C9
:100920000E94AE0D84EF91E06AE30E94D20C6091C8
:1009300016017091170184EF91E04AE050E00E94A7
:10094000130E1F910F91FF90EF900895EF92FF9279
:100950000F931F93CF93DF937C01062F142F0E94D8
:10096000590860935F0170936001809361019093D7
:100970006201112349F4802F992787FD90956DEF2F
:100980007FEF0E945711062FC02FDD27C7FDD0959E
:10099000CE0DDF1DD7FF05C010925D01C0E0D0E095
:1009A00008C0CF3FD10529F024F010925D01CFEFB0
:1009B000D0E083E0BE010E941D09CE01DF91CF91FE
:1009C0001F910F91FF90EF900895AF92BF92CF9239
:1009D000DF92EF92FF920F931F93A0902C01B090A3
:1009E0002D01C0902E01D0902F01E0905401F09085
:1009F00055010091560110915701C801B70120E03F
:100A000030E040EA50E40E94190F9B01AC01C6019E
:100A1000B5010E947E0F87FD10C0C801B70120E01C
:100A200030E040EA50E40E941A0F9B01AC01C6017D
:100A3000B5010E94CD101816ACF40E9459086093BD
:100A400058017093590180935A0190935B0181E0A2
:100A500080935C0180935D0180935E018DE061E095
:100A60000E94BC0980915C018823F1F00E94590822
:100A7000209158013091590140915A0150915B01E8
:100A8000621B730B840B950B615177428040904041
:100A900058F010925C0181E080935D0110925E013C
:100AA0008DE060E00E94BC091F910F91FF90EF90D4
:100AB000DF90CF90BF90AF9008951F930E94590888
:100AC0006093300170933101809332019093330130
:100AD0008EE00E94FB089C0190932B0180932A01D9
:100AE00040E050E0CA01B9010E941B10AB01BC01FB
:100AF00084E391E00E94B7068091500190915101EA
:100B0000A0915201B09153018093540190935501EB
:100B1000A0935601B093570180914C0190914D01E3
:100B2000A0914E01B0914F018093500190935101DB
:100B3000A0935201B09353018091480190914901D3
:100B4000A0914A01B0914B0180934C0190934D01CB
:100B5000A0934E01B0934F018091440190914501C3
:100B6000A0914601B09147018093480190934901BB
:100B7000A0934A01B0934B018091400190914101B3
:100B8000A0914201B09143018093440190934501AB
:100B9000A0934601B093470180913C0190913D01A3
:100BA000A0913E01B0913F0180934001909341019B
:100BB000A0934201B093430180912C0190912D01AB
:100BC000A0912E01B0912F0180933C0190933D01A3
:100BD000A0933E01B0933F0184E391E069E00E945D
:100BE000610760932C0170932D0180932E019093E7
:100BF0002F0184E391E00E94E806182F84E391E03E
:100C00000E94E506181708F459CF1F9108950E9415
:100C100059082091300130913101409132015091B9
:100C20003301621B730B840B950B623171058105D7
:100C3000910570F00E945D050E94E504609130010D
:100C40007091310180913201909133010E948402B0
:100C500080915D01882351F10E94590820915F0124
:100C6000309160014091610150916201621B730BF0
:100C7000840B950B6432710581059105B8F0809164
:100C80001601909117016DEF40915E010E94A6043C
:100C9000909317018093160160915F01709160013C
:100CA00080916101909162010E948402089584EF15
:100CB00091E040E054E961E170E00E94ED0A84EFC8
:100CC00091E00E941E0C8823D1F368EE73E080E06F
:100CD00090E00E94670882E161E00E947D0982E164
:100CE00060E00E94BC0983E162E00E947D0981E12D
:100CF00062E00E947D098DE061E00E947D098DE047
:100D000060E00E94BC09609116017091170183E0B8
:100D10000E941D0980E090E0A0E0B0E080933C01DB
:100D200090933D01A0933E01B0933F018093400119
:100D300090934101A0934201B093430180934401F9
:100D400090934501A0934601B093470180934801D9
:100D500090934901A0934A01B0934B0180934C01B9
:100D600090934D01A0934E01B0934F010895DC0183
:100D700013962C911397822F90E0880F991F880F5C
:100D8000991F1496ED91FC911597E80FF91F408378
:100D90005183628373832F5F13962C93139711965D
:100DA0008C911197281718F013961C92139712968E
:100DB0009C91129711968C911197981720F49F5F30
:100DC00012969C9312971C920895FC0181810895BC
:100DD000FC01828108957F928F929F92AF92BF9281
:100DE000CF92DF92EF92FF920F931F93CF93DF93F7
:100DF0008C01BB2446C0F801A481B581868197810E
:100E000021977C01EC0EFD1E2196F701A0808C0F2E
:100E10009D1FFC01C080EA2DF0E0EE0FFF1FEE0FDA
:100E2000FF1FEA0FFB1F8C2D90E0880F991F880F82
:100E3000991FA80FB91F60817181828193812D91C3
:100E40003D914D915C910E94CD1018165CF4D70134
:100E5000CC92D8011696ED91FC911797EC0FFD1FDF
:100E6000A0827724D394CD2DD0E0F801828190E048
:100E700088199909C817D9070CF4BDCF772081F4D8
:100E8000B3948B2C9924D80112968C9190E0019701
:100E9000881699062CF477247394DD24D394E3CF39
:100EA00081E0F8018083DF91CF911F910F91FF9036
:100EB000EF90DF90CF90BF90AF909F908F907F90FA
:100EC0000895AF92BF92CF92DF92EF92FF920F936D
:100ED0001F93CF93DF93EC018A81882309F450C0DC
:100EE000662309F44DC0262F861708F4282FA22E5A
:100EF000BB2490E08A199B0962E070E00E945711C0
:100F0000162FC62EC20E8881882319F4CE010E94A6
:100F1000EB06D12E0F2EF0E0EF2EF0E0FF2EF0E0EA
:100F20000F2FF0E01F2FF02D19C0EE81FF81ED0D86
:100F3000F11D808190E0880F991F880F991FEC8127
:100F4000FD81E80FF91FC801B7012081318142817D
:100F500053810E941A0F7B018C01D394DC1428F377
:100F6000B501882777FD8095982F0E941D109B0161
:100F7000AC01C801B7010E94820FE62F692F04C09F
:100F8000E0E070E080EC6FE72E2F372F482F562FD0
:100F9000B901CA01DF91CF911F910F91FF90EF909E
:100FA000DF90CF90BF90AF9008950F931F938C0167
:100FB000FC01848195810E94F401F801868197816A
:100FC0000E94F4011F910F910895CF93DF93EC01DC
:100FD000662311F461E003C0643108F063E16983C2
:100FE000862F90E0880F991F880F991F0E944A0151
:100FF0008C839D83898190E00E944A018E839F8328
:101000001A821B82188290E006C0EE81FF81E90FF0
:10101000F11D90839F5F89819817B8F3DF91CF917D
:1010200008951F920F920FB60F9211242F933F93A2
:101030008F939F93AF93BF938091670190916801C5
:10104000A0916901B0916A0130916B010196A11DD7
:10105000B11D232F2D5F2D3720F02D570196A11D97
:10106000B11D20936B018093670190936801A09359
:101070006901B0936A018091630190916401A0912C
:101080006501B09166010196A11DB11D80936301B8
:1010900090936401A0936501B0936601BF91AF91F5
:1010A0009F918F913F912F910F900FBE0F901F90A6
:1010B00018958FB7F894209167013091680140919D
:1010C000690150916A018FBFB901CA0108959B015E
:1010D000AC017FB7F8948091630190916401A09175
:1010E0006501B091660166B5A89B05C06F3F19F018
:1010F0000196A11DB11D7FBFBA2FA92F982F882758
:10110000860F911DA11DB11D62E0880F991FAA1FB6
:10111000BB1F6A95D1F7BC012DC0FFB7F894809131
:10112000630190916401A0916501B0916601E6B5FB
:10113000A89B05C0EF3F19F00196A11DB11DFFBF8F
:10114000BA2FA92F982F88278E0F911DA11DB11D91
:10115000E2E0880F991FAA1FBB1FEA95D1F7861BF3
:10116000970B885E9340C8F2215030404040504079
:1011700068517C4F211531054105510571F60895DF
:10118000789484B5826084BD84B5816084BD85B562
:10119000826085BD85B5816085BDEEE6F0E0808129
:1011A00081608083E1E8F0E010828081826080834A
:1011B000808181608083E0E8F0E0808181608083CD
:1011C000E1EBF0E0808184608083E0EBF0E08081FF
:1011D00081608083EAE7F0E08081846080838081A1
:1011E0008260808380818160808380818068808349
:1011F0001092C1000895982F8E3008F09E5097707D
:10120000809118018295880F880F807C892B8093AC
:101210007C0080917A00806480937A0080917A00CB
:1012200086FDFCCF2091780040917900942F80E0DA
:1012300030E0282B392BC90108951F93CF93DF93FA
:10124000182FEB0161E00E947D09209709F44AC044
:10125000CF3FD10509F449C0E12FF0E0EB5DFD4F30
:1012600084918330C1F0843028F4813051F0823091
:10127000B1F50CC0863019F1873049F1843079F529
:1012800014C084B5806884BDC7BD33C084B5806296
:1012900084BDC8BD2EC0809180008068809380008E
:1012A000D0938900C093880024C080918000806220
:1012B00080938000D0938B00C0938A001AC08091E5
:1012C000B00080688093B000C093B30012C08091DA
:1012D000B00080628093B000C093B4000AC0C038F0
:1012E000D1051CF4812F60E002C0812F61E00E94D3
:1012F000BC09DF91CF911F910895CF93DF93482FC1
:1013000050E0CA018F5E9D4FFC01349143505E4F07
:10131000FA018491882369F190E0880F991FFC01FC
:10132000E152FE4FA591B491FC01E751FE4FC591EA
:10133000D491662351F42FB7F8948C91932F909504
:1013400089238C93888189230BC0623061F42FB785
:10135000F8948C91932F909589238C938881832B7B
:1013600088832FBF06C09FB7F8948C91832B8C93F2
:101370009FBFDF91CF910895482F50E0CA018B5D48
:101380009D4FFC012491CA018F5E9D4FFC019491F9
:1013900043505E4FFA013491332309F440C02223B5
:1013A00051F1233071F0243028F42130A1F02230A3
:1013B00011F514C02630B1F02730C1F02430D9F433
:1013C00004C0809180008F7703C0809180008F7D62
:1013D0008093800010C084B58F7702C084B58F7D64
:1013E00084BD09C08091B0008F7703C08091B000A8
:1013F0008F7D8093B000E32FF0E0EE0FFF1FE751E9
:10140000FE4FA591B4912FB7F894662321F48C91E7
:101410009095892302C08C91892B8C932FBF0895BE
:10142000682F70E0CB018B5D9D4FFC012491CB01B7
:101430008F5E9D4FFC01449163507E4FFB01949160
:10144000992319F420E030E03CC0222351F12330ED
:1014500071F0243028F42130A1F0223011F514C0AD
:101460002630B1F02730C1F02430D9F404C0809187
:1014700080008F7703C0809180008F7D80938000F3
:1014800010C084B58F7702C084B58F7D84BD09C03C
:101490008091B0008F7703C08091B0008F7D8093E2
:1014A000B000892F90E0880F991F8D509E4FFC014E
:1014B000A591B4918C9120E030E0842311F021E0DB
:1014C00030E0C901089508951F920F920FB60F9250
:1014D00011242F933F934F938F939F93EF93FF93F9
:1014E0008091C00082FD1DC04091C6002091AC01DA
:1014F0003091AD012F5F3F4F2F7330708091AE015F
:101500009091AF012817390771F0E091AC01F0918B
:10151000AD01E459FE4F40833093AD012093AC01FF
:1015200002C08091C600FF91EF919F918F914F91E2
:101530003F912F910F900FBE0F901F901895E09143
:101540000002F0910102E05CFF4F819191912081B6
:101550003181821B930B8F739070892B11F00E9445
:10156000630A08951F920F920FB60F9211242F93C2
:101570003F938F939F93EF93FF932091F0013091CE
:10158000F1018091F2019091F3012817390731F4AC
:101590008091C1008F7D8093C10014C0E091F20161
:1015A000F091F301E055FE4F20818091F20190917E
:1015B000F30101968F7390709093F3018093F20181
:1015C0002093C600FF91EF919F918F913F912F91B2
:1015D0000F900FBE0F901F901895AF92BF92DF92A1
:1015E000EF92FF920F931F93CF93DF93EC017A0159
:1015F0008B01DD24403081EE580780E0680780E0F1
:10160000780711F0DD24D39491E0A92EB12CEC8958
:10161000FD89DD2069F0C50108A002C0880F991F6F
:101620000A94E2F7808360E079E08DE390E005C002
:10163000108260E874E88EE190E0A80197010E94B2
:101640006A1121503040404050405695479537959B
:10165000279580E12030380720F0DD2011F0DD24CF
:10166000D6CFE889F9893083EA89FB89208319A2DA
:10167000EE89FF89408121E030E0C9010C8C02C075
:10168000880F991F0A94E2F7482B4083EE89FF895F
:101690004081C9010D8C02C0880F991F0A94E2F79E
:1016A000482B4083EE89FF894081C9010E8C02C01E
:1016B000880F991F0A94E2F7482B4083EE89FF892F
:1016C00080810F8C02C0220F331F0A94E2F720950D
:1016D00028232083DF91CF911F910F91FF90EF90EE
:1016E000DF90BF90AF900895DC011C96ED91FC91C6
:1016F0001D97E05CFF4F2191319180819181281BE2
:10170000390B2F733070C9010895DC011C96ED91DF
:10171000FC911D97E05CFF4F20813181E054F04047
:10172000DF01AE5BBF4F8D919C9111972817390750
:1017300019F42FEF3FEF07C08D919C91E80FF91F2F
:101740008081282F30E0C9010895DC011C96ED91BD
:10175000FC911D97E05CFF4F20813181E054F04007
:10176000DF01AE5BBF4F8D919C9111972817390710
:1017700019F42FEF3FEF10C08D919C911197E80F56
:10178000F91F20818D919C91119701968F73907014
:1017900011969C938E9330E0C9010895DC019196D7
:1017A0008C919197882339F05496ED91FC9155973F
:1017B000808186FFF9CF91961C920895CF93DF9395
:1017C000EC01EE85FF85E05CFF4F20813181E05424
:1017D000F0402F5F3F4F2F733070DF01AE5BBF4F84
:1017E0008D919C91119728173907D1F3E05CFF4F39
:1017F00080819181E054F040E80FF91F6083EE850D
:10180000FF85E05CFF4F31832083EE89FF892081D3
:1018100081E090E00F8C02C0880F991F0A94E2F7D4
:10182000282B208381E089A3EC89FD898081806455
:10183000808381E090E0DF91CF91089581E0089569
:101840001092F7011092F60188EE93E0A0E0B0E06C
:101850008093F8019093F901A093FA01B093FB01F2
:101860008DE191E09093F5018093F4018CE691E095
:10187000909301028093000280EB91E09093030229
:101880008093020285EC90E090930502809304021D
:1018900084EC90E0909307028093060280EC90E045
:1018A000909309028093080281EC90E090930B02E0
:1018B00080930A0282EC90E090930D0280930C02D8
:1018C00086EC90E090930F0280930E0284E0809368
:1018D000100283E08093110287E08093120285E07A
:1018E0008093130281E0809314020895CF93DF93D5
:1018F0000E94C0080E945706CFE9DAE00E9407065E
:101900002097E1F30E949F0AF9CFCF92DF92EF92E6
:10191000FF920F931F93CF93DF937C016B018A019A
:10192000C0E0D0E00FC0D6016D916D01D701ED91FF
:10193000FC910190F081E02DC7010995C80FD91FD6
:10194000015010400115110571F7CE01DF91CF91C3
:101950001F910F91FF90EF90DF90CF900895EF923D
:10196000FF920F931F93CF93DF937C018B01C0E015
:10197000D0E0F8010F5F1F4F6491662359F0D70143
:10198000ED91FC910190F081E02DC7010995C80F00
:10199000D91FEFCFCE01DF91CF911F910F91FF9013
:1019A000EF900895DC01ED91FC910190F081E02D24
:1019B00009950895EF92FF920F931F938C01DC011C
:1019C000ED91FC910190F081E02D6DE009957C0195
:1019D000D801ED91FC910190F081E02DC8016AE001
:1019E00009959C012E0D3F1DC9011F910F91FF907C
:1019F000EF900895EF92FF920F931F937C010E9446
:101A0000AF0C8C01C7010E94DA0C9C01200F311F22
:101A1000C9011F910F91FF90EF900895CF93DF932D
:101A2000EC016115710519F420E030E00FC0DB0115
:101A30000D900020E9F71197A61BB70BE881F981FB
:101A40000280F381E02DAD0109959C01C901DF9170
:101A5000CF9108954F925F927F928F929F92AF9213
:101A6000BF92CF92DF92EF92FF920F931F93DF937B
:101A7000CF93CDB7DEB7A1970FB6F894DEBF0FBEF8
:101A8000CDBF2C01742ECB01223008F42AE019A21C
:101A900031E2C32ED12CCC0EDD1E822E9924AA2435
:101AA000BB24672D752FA50194010E946A1179014D
:101AB0008A01C801B701A50194010E943811472D80
:101AC000461B0894C108D1084A3014F4405D01C097
:101AD000495CF6014083E114F1040105110521F090
:101AE0007E2C5F2DC801DDCFC201B6010E940E0D14
:101AF000A1960FB6F894DEBF0FBECDBFCF91DF9198
:101B00001F910F91FF90EF90DF90CF90BF90AF901B
:101B10009F908F907F905F904F900895DC012115EA
:101B2000310541F4ED91FC910190F081E02D642F9D
:101B3000099508950E942A0D0895EF92FF920F9340
:101B40001F939A017B0100E010E0B801A7010E94F9
:101B50008E0D1F910F91FF90EF900895EF92FF92DD
:101B60000F931F939A01E62EFF2400E010E0B801C6
:101B7000A7010E948E0D1F910F91FF90EF90089585
:101B8000CF92DF92EF92FF920F931F93CF93DF9349
:101B9000EC016A017B012115310541F4E881F981ED
:101BA0000190F081E02D642F09951FC02A30310586
:101BB000D1F477FF17C0E881F9810190F081E02D21
:101BC0006DE209958C0144275527BA014C195D092E
:101BD0006E097F09CE012AE00E942A0D9801280F84
:101BE000391F04C02AE00E942A0D9C01C901DF911F
:101BF000CF911F910F91FF90EF90DF90CF900895BC
:101C0000EF92FF920F931F937B019A010027F7FC3D
:101C10000095102FB801A7010E94C00D1F910F91D0
:101C2000FF90EF900895CF92DF92EF92FF920F9383
:101C30001F936C017B019A010027F7FC0095102F80
:101C4000B801A7010E94C00D8C01C6010E94DA0CE8
:101C5000080F191FC8011F910F91FF90EF90DF909F
:101C6000CF9008957F928F929F92AF92BF92CF9222
:101C7000DF92EF92FF920F931F93CF93DF934C016C
:101C80007A018B01722ECB01BA01A80197010E9443
:101C90003411882321F0C40160E071E021C0C0E06C
:101CA000D0E057016801E894D7F8C601B5012FEFDD
:101CB0003FEF4FE75FE70E943411882351F4C601DC
:101CC000B5012FEF3FEF4FE75FE70E947E0F181639
:101CD00014F0C1E0D0E0219739F0C40164E071E074
:101CE0000E940E0DEC0193C0C801B7012FEF3FEF2A
:101CF0004FE75FE40E94CD10181654F0C801B701F9
:101D00002FEF3FEF4FE75FEC0E947E0F882324F414
:101D1000C40168E071E0E4CFC801B70120E030E021
:101D200040E050E00E947E0F87FD03C0C0E0D0E09D
:101D30000EC0D401ED91FC910190F081E02DC40121
:101D40006DE20995EC0117FB109517F9109520E04D
:101D500030E040E05FE3DD240BC0CA01B90120E0C0
:101D600030E040E251E40E94820F9B01AC01D39429
:101D7000D71498F3C801B7010E941A0F5B016C01D8
:101D80000E94EF0F7B018C01C401B801A7012AE07A
:101D900030E00E948E0DC80FD91F772039F0C401A2
:101DA0006CE071E00E940E0DC80FD91FC801B70189
:101DB0000E941B109B01AC01C601B5010E94190FC6
:101DC00024C020E030E040E251E40E94D1107B01C9
:101DD0008C010E94EA0F5B016C01CC24B7FCC0941B
:101DE000DC2CC401B601A5012AE030E00E94C00D40
:101DF000C80FD91FC601B5010E941D109B01AC017F
:101E0000C801B7010E94190F7A947720D1F6CE014C
:101E1000DF91CF911F910F91FF90EF90DF90CF90C6
:101E2000BF90AF909F908F907F9008950E94320E48
:101E300008955058BB27AA270ED075C166D130F03F
:101E40006BD120F031F49F3F11F41EF45BC10EF40E
:101E5000E095E7FB51C1E92F77D180F3BA1762070C
:101E600073078407950718F071F49EF58FC10EF47F
:101E7000E0950B2EBA2FA02D0B01B90190010C019A
:101E8000CA01A0011124FF27591B99F0593F50F4B2
:101E9000503E68F11A16F040A22F232F342F44270A
:101EA000585FF3CF469537952795A795F040539502
:101EB000C9F77EF41F16BA0B620B730B840BBAF0D2
:101EC0009150A1F0FF0FBB1F661F771F881FC2F73D
:101ED0000EC0BA0F621F731F841F48F48795779551
:101EE0006795B795F7959E3F08F0B3CF9395880F08
:101EF00008F09927EE0F979587950895D9D008F4A3
:101F000081E008950CD00FC107D140F0FED030F031
:101F100021F45F3F19F0F0C0511139C1F3C014D161
:101F200098F39923C9F35523B1F3951B550BBB27A0
:101F3000AA2762177307840738F09F5F5F4F220F4D
:101F4000331F441FAA1FA9F333D00E2E3AF0E0E846
:101F500030D091505040E695001CCAF729D0FE2F92
:101F600027D0660F771F881FBB1F26173707480724
:101F7000AB07B0E809F0BB0B802DBF01FF279358DA
:101F80005F4F2AF09E3F510568F0B6C000C15F3F29
:101F9000ECF3983EDCF3869577956795B795F795C2
:101FA0009F5FC9F7880F911D9695879597F90895BA
:101FB000E1E0660F771F881FBB1F62177307840756
:101FC000BA0720F0621B730B840BBA0BEE1F88F765
:101FD000E095089504D06894B111D9C00895BCD09B
:101FE00088F09F5790F0B92F9927B751A0F0D1F002
:101FF000660F771F881F991F1AF0BA95C9F712C08C
:10200000B13081F0C3D0B1E00895C0C0672F782F00
:102010008827B85F39F0B93FCCF3869577956795F7
:10202000B395D9F73EF490958095709561957F4F63
:102030008F4F9F4F0895E89409C097FB3EF4909509
:102040008095709561957F4F8F4F9F4F9923A9F091
:10205000F92F96E9BB279395F69587957795679520
:10206000B795F111F8CFFAF4BB0F11F460FF1BC064
:102070006F5F7F4F8F4F9F4F16C0882311F096E9F7
:1020800011C0772321F09EE8872F762F05C06623A5
:1020900071F096E8862F70E060E02AF09A95660F5E
:1020A000771F881FDAF7880F9695879597F9089517
:1020B000990F0008550FAA0BE0E8FEEF1616170659
:1020C000E807F907C0F012161306E407F50798F0C1
:1020D000621B730B840B950B39F40A2661F0232BDA
:1020E000242B252B21F408950A2609F4A140A69556
:1020F0008FEF811D811D089597F99F6780E870E03B
:1021000060E008959FEF80EC089500240A9416166D
:10211000170618060906089500240A9412161306D5
:10212000140605060895092E0394000C11F4882363
:1021300052F0BB0F40F4BF2B11F460FF04C06F5F7F
:102140007F4F8F4F9F4F089557FD9058440F551F55
:1021500059F05F3F71F04795880F97FB991F61F029
:102160009F3F79F087950895121613061406551FA0
:10217000F2CF4695F1DF08C0161617061806991F0C
:10218000F1CF86957105610508940895E894BB2701
:1021900066277727CB0197F908958ADF08F48FEF38
:1021A00008950BD0C0CFB1DF28F0B6DF18F095232B
:1021B00009F0A2CFA7CF1124EACFC6DFA0F3959FE5
:1021C000D1F3950F50E0551F629FF001729FBB271E
:1021D000F00DB11D639FAA27F00DB11DAA1F649FCA
:1021E0006627B00DA11D661F829F2227B00DA11D7D
:1021F000621F739FB00DA11D621F839FA00D611D03
:10220000221F749F3327A00D611D231F849F600D23
:10221000211D822F762F6A2F11249F5750408AF05C
:10222000E1F088234AF0EE0FFF1FBB1F661F771FE8
:10223000881F91505040A9F79E3F510570F05CCF28
:10224000A6CF5F3FECF3983EDCF3869577956795D4
:10225000B795F795E7959F5FC1F7FE2B880F911D06
:102260009695879597F9089523DF880B990B089524
:10227000629FD001739FF001829FE00DF11D649F6A
:10228000E00DF11D929FF00D839FF00D749FF00DF6
:10229000659FF00D9927729FB00DE11DF91F639F97
:1022A000B00DE11DF91FBD01CF011124089597FB69
:1022B000092E07260AD077FD04D02ED006D00020A4
:1022C0001AF4709561957F4F0895F6F79095819572
:1022D0009F4F0895A1E21A2EAA1BBB1BFD010DC042
:1022E000AA1FBB1FEE1FFF1FA217B307E407F507C6
:1022F00020F0A21BB30BE40BF50B661F771F881FA2
:10230000991F1A9469F760957095809590959B0137
:10231000AC01BD01CF010895AA1BBB1B51E107C051
:10232000AA1FBB1FA617B70710F0A61BB70B881F65
:10233000991F5A95A9F780959095BC01CD010895F4
:10234000EE0FFF1F0590F491E02D099412E0CEE30B
:10235000D2E004C0FE010E94A2112296C034D1072F
:06236000C9F7F894FFCF5D
:102366006E616E00696E66006F7666002E00200054
:102376001A0200000101FF000100000000DE0B85CB
:0A2386000C740BA50B850BCE0B00A9
:00000001FF
